:020000040800F2
:10000000005000209D1300089B130008991300085E
:1000100099130008991300089913000800000000C4
:100020000000000000000000000000009B1300081A
:100030009B130008000000009B13000881010008CA
:1000400099130008991300089913000899130008E0
:1000500099130008991300089913000899130008D0
:1000600099130008991300089913000899130008C0
:1000700099130008991300089913000899130008B0
:1000800099130008991300089913000899130008A0
:100090009913000899130008991300089913000890
:1000A0009913000899130008991300089913000880
:1000B0009913000899130008991300089913000870
:1000C0009913000899130008991300089913000860
:1000D0009913000899130008991300089913000850
:1000E0009913000899130008991300089913000840
:1000F0009913000899130008991300089913000830
:10010000991300089913000899130008991300081F
:10011000991300089913000899130008991300080F
:1001200099130008991300089913000899130008FF
:1001300099130008991300089913000899130008EF
:1001400099130008991300089913000899130008DF
:1001500008B501F08FF900BF064B1A681AB940F6CE
:100160000441054A11800A224FF4806103481A6055
:1001700000F04ABC94000020140C0140000C014027
:1001800038B5164C2368E3B9154A157875B140F6B1
:10019000044014496360088013704FF400611248F2
:1001A00000F032FC63680133636038BD6368012B83
:1001B00010D0022B0BD104210B4800F025FC656008
:1001C00038BD0121064A013B2360117038BD002B68
:1001D000E3D038BD4FF48061E1E700BF9400002018
:1001E00000000020140C0140000C014008B540F252
:1001F000033000F012FC1E4B1B68DB0401D500F03D
:1002000035FA002000F030FA00F0B8FB002001F0D1
:1002100015F9184801F00AF940F2023000F0FDFB30
:1002200040F2973000F0F9FB00224FF48073114642
:10023000114800F0B9FA01F00DF901F013F940F698
:100240000443002202210D4800F0AEFA00210C48C0
:1002500000F030F94FF480720A4913460A600648EC
:100260000022022100F0A0FA00F0CCF9002008BD25
:10027000080C0140A0BB0D0000080140000C01402B
:10028000E81B00081008014010B5184C2378042B17
:1002900006D0072B03D1BDE81040FFF759BF10BDB2
:1002A00000F0D2FB1249B1F80834A3B90B78412B06
:1002B00004D000F0DBFB0523237010BDCB78087958
:1002C0004A781B0403EB00638878134403EB002097
:1002D00000F0A0F9EDE7D1F80404023B00EB832025
:1002E000B1F8002400F0A6F9E3E700BF0800002001
:1002F0009C000020F0B50C7883B004F07F04212C22
:1003000002D0002003B0F0BD0C46497815460139F3
:100310000529F6D8DFE801F0553A16100803022245
:10032000604B01201A70EDE701225E4829680478CD
:1003300010460C701A80E5E75A4B1A780A2A4ED0FC
:100340000120DFE7574C2F682278062A4BD00A2A73
:1003500000F08580032A66D000218C460C460846B2
:100360004FF0000E062638702868447028684E4CFE
:1003700080F802C02F680120F97029680A712A6884
:1003800082F805E01E80089B1C60BBE7454E317873
:1003900009291ED84FF40972CA40D20719D509207D
:1003A00062884249012A3070A1F80824C8D9D1F8DE
:1003B0000414023A01EB822128681A8801F0ECFA51
:1003C000BEE70BB11A88AAB90622364B01201A7073
:1003D00098E70122002100F0B6FB002092E70222FC
:1003E00001201A708EE7002107228C4622700846F1
:1003F0000C46B5E7E178A2782C4E42EA0122A6F835
:1004000008241A882968A6F800241A88304601F0C2
:10041000C3FA638813B93378212B27D00322214BE9
:1004200001201A706EE7042220482270C2780179F8
:100430004678120402EB01628178324402EB01211A
:10044000B0F808240078019300F00CF92278C0F38A
:10045000072CC4B2C0F30741019B002080E70021B4
:1004600012488C460C4690F8100479E7F3783179FD
:100470001B0470780E4A03EB0163B17803441268E1
:1004800003EB0123934206D3D6F80C24934202D205
:10049000C6F80434C2E701200A22024B86F8100491
:1004A0001A702FE708000020890200089C00002035
:1004B00004000020414B424A1B68F0B5C3F30B0314
:1004C000A3F10804A2FB04523E4E3F4F3F4D366855
:1004D0003F6852092D683E44092A85B02E4451D9FF
:1004E00039223B4D85F84A2085F84B2085F84C2071
:1004F000384A402B14BF9B02374B1268374F18BF46
:1005000003F10063C7F80C3402F00303032B4FD050
:10051000302385F87230324B00241D4626FA04F24F
:1005200002F00F0204343032202C05F8012DF5D1F1
:100530002C4A14780132392C84BF073402F8014C5C
:100540009A42F6D100244FF4806E0426264B274DA4
:10055000A3F11002A14208BF1346254ACDF808E0D6
:100560000096019502F1100187F81C4400F08CFA06
:100570007F2221211F4C204B206005B0BDE8F040B8
:1005800000F0A5BB642707FB12471C4C104DA4FBD1
:1005900007E4E40804EB840EA7EB4E073032303456
:1005A000303785F84A2085F84B4085F84C709FE736
:1005B000134B1B689B07AED5AAE700BFE0F7FF1FF0
:1005C0001F85EB51E8F7FF1FECF7FF1FF0F7FF1F48
:1005D0000800002020200240000002089C000020AB
:1005E000B8040020B00400201C000020C405002036
:1005F000E01A0008C0050020F5020008CDCCCCCCE4
:100600001C20024008B5024C206800F069FAFBE7A4
:10061000C005002038B5064D20F47F742B6824F007
:1006200003049C4203D0204600F080F82C6038BDC3
:1006300084000020002A12DD70B50C46551E25F0FE
:10064000010502350D44461A301934F8021B00F03A
:100650003BF8AC42F8D1BDE87040FFF77DBDFFF735
:100660007BBD00BF64207047704700BF09490A4B3B
:100670000A6810680340B3F1005F00D07047074B71
:10068000C2F314021A600B681A6882F308885B6868
:10069000184700BF040000200000FE2F08ED00E016
:1006A000064B1868064B1B889BB2B3F5007F82BFD0
:1006B000044B1B68184300F0350070470C200240C3
:1006C000E0F7FF1F4C20024038B504460D4600F00D
:1006D000D5F9124B1B889BB2B3F5007F19D9104B8B
:1006E0009C4216D90F4A136843F00103136025801A
:1006F00000F0C4F9094B1B889BB2B3F5007F0AD9FF
:10070000074B9C4207D9074A136823F00103136083
:1007100038BD054AE7E7044AF6E700BFE0F7FF1FE8
:10072000FFFF0708502002401020024010B5044689
:1007300000F0A4F9164B1B889BB2B3F5007F1ED9BD
:10074000144B9C421BD9144B1A6842F002021A60E7
:10075000124A14601A6842F040021A6000F08EF9E2
:100760000B4B1B889BB2B3F5007F0FD9094B9C4202
:100770000CD9094A136823F00203136010BD084B1B
:100780001A6842F002021A60064AE2E7044AF1E7F8
:10079000E0F7FF1FFFFF07085020024054200240EF
:1007A00010200240142002402DE9F0434FF6E0777C
:1007B00000264FF00F0896469C46026843684CFAA4
:1007C00006F4E40718D5072EB4B28BBF3C46914619
:1007D0009946A40098BFA4B208FA04F529EA0509CD
:1007E000A51C0EFA05F501FA04F42C4344EA0904A9
:1007F000082E2CBF2346224601360437102EBFB2E6
:10080000DDD102604360BDE8F0830000024A136856
:1008100043F080731360704700100240062822D80E
:10082000DFE800F004090E13181D1F000F4B1868B5
:10083000C0F3406070470D4B1868C0F3C06070474C
:100840000A4B1868C0F340707047084B1868C0F333
:1008500040407047054B1868C0F340007047044B98
:10086000F9E7044BF7E70020704700BF0010024093
:100870002010024024100240024608B51046FFF73F
:10088000CDFF0028FAD008BD06280CD8DFE800F01C
:1008900004060C11161B1D00FFF7B8BF0C4A1368A5
:1008A00043F0806313607047094A136843F0805334
:1008B000F8E7074A136843F48033F3E7044A136800
:1008C00043F00103EEE7034AF9E7034AF7E700BF05
:1008D000001002402010024024100240034A136816
:1008E00023F0030318431060704700BF0410024058
:1008F000034A136823F4701343EA80401060704782
:1009000004100240034A136823F4803343EA004092
:100910001060704704100240034A136823F4003348
:1009200043EA40401060704704100240034A1368D5
:1009300023F4404343EA80301060704704100240C3
:10094000034A136823F4605343EAC02010607047E1
:1009500004100240034A136823F4E06343EA0020D2
:100960001060704704100240034A136823F0F0033C
:1009700043EA0010106070470410024008B50420DC
:10098000FFF782FF0420FFF777FF0020FFF7A6FFA5
:100990000320FFF779FF0320FFF76EFF0120FFF729
:1009A0009DFF0020FFF7E0FF0320FFF7BFFF0420BB
:1009B000FFF7D0FF0020FFF7C3FF022000F03AF856
:1009C0000720FFF795FF0120FFF79CFF0020FFF7AE
:1009D000A3FFFFF71BFF0020FFF74EFF0220FFF7EA
:1009E0007DFF044B044A05491360054A1160054A1E
:1009F000136008BD00A24A048800002000512502AF
:100A00008C00002090000020C36803EA010221EA64
:100A1000030141EA024101617047430900F01F02EE
:100A2000012003F1804303F5043319689040084323
:100A300018607047034A136823F0070318431060D7
:100A4000704700BF00200240054A136843F080034E
:100A50001360044B044A1A6002F188321A6070472E
:100A6000102002400420024023016745024A136817
:100A700043F08003136070471020024008B5FFF771
:100A80000FFEC307FBD408BD2DE9F0411E460368E5
:100A90000546884617469847069BC0F8DC50C36059
:100AA000079BC0F800800361BDF820304760838257
:100AB000084B86600367084BC366084B83660023B8
:100AC000C0F8C830C0F8CC30C0F8D030C0F8D4304E
:100AD000BDE8F081F50C0008650D0008E90D00087F
:100AE000D0F8DC305B6A184710B4D0F8DC40A4685A
:100AF000A44610BC604737B50025044603688575D9
:100B0000C575DB792A4629460095FFF7EDFFD4F835
:100B1000DC3029465B6820469847E3691BB103B087
:100B2000BDE83040184703B030BD10B4D0F8DC4009
:100B3000E469A44610BC604710B4D0F8DC40246AD5
:100B4000A44610BC6047D0F8DC301B691847D0F8C9
:100B5000DC309B691847D0F8DC305B69184710B56A
:100B6000012200210446FFF7EEFF002384F82C3019
:100B700010BD70B50368828FC48EDB79A41A9C42C5
:100B8000A8BF1C46816BA6B20A4433460021054625
:100B9000FFF7D2FF864205D02846FFF7E0FF4FF06F
:100BA000FF3070BDAB8FA0B21E44AE8770BD10B5D4
:100BB00003680446DA79838F9A4210D213460021E3
:100BC000826BFFF7B2FF022384F82C302368A26BFC
:100BD000D979A38F0A445B1AA263A38710BD826BE5
:100BE0000021FFF7A2FF94F84430002B14BF02232A
:100BF000032384F82C30002384F84430A387A363B4
:100C000010BD2DE9F74F04460E4600F1480500F1EE
:100C1000680B00F13C0900F1380800F1400A2F6828
:100C200057B93146204604F13C0304F1380203B0C1
:100C3000BDE8F04F00F05EBB337869792A790B404C
:100C40009A4203D008355D45E9D1EAE7CDF800A026
:100C50004B46424631462046B8470128F2D803B0F9
:100C6000BDE8F08F38B50369044683638B79CA7990
:100C70000D4643EA02238387FFF7C3FF10B3EB88D7
:100C8000BBB1A28F21689342C9790ED97AB192FB88
:100C9000F1F301FB1323B3FA83F35B0984F84430C7
:100CA0002046BDE83840FFF782BF0023F6E7134631
:100CB000F4E71A4619462046FFF737FF042384F865
:100CC0002C3038BD2046BDE83840FFF748BF70B52E
:100CD000002600EBC605AC6C2CB10136042EF8D111
:100CE0004FF0FF3070BD85F84C1085F84D20AB6497
:100CF000204670BD70B50025044600F1300605643D
:100D000001222946FFF727FF0823324629462046BD
:100D1000FFF712FF082804D02046BDE87040FFF717
:100D20001EBFE38E2BB931462046BDE87040FFF769
:100D300099BF94F93020002AF5DBA28A9A42EBD3BE
:100D40002269A587A26322682046D2799A4234BFDD
:100D500005230623002284F82C301146BDE870409C
:100D6000FFF7F9BE90F82C3010B5062B044612D0D0
:100D7000072B27D0052B21D1FFF7FBFE002832DB04
:100D8000A28FE38E9B1A2268D27993422BDC062332
:100D900084F82C3010BDFFF7ECFE002823DB04F1B3
:100DA00030012046FFF72DFF38B1002320461A46B8
:100DB0001946FFF7BAFE0423EAE72046BDE81040D3
:100DC000FFF7CDBE00231A461946FFF7B5FE0023F4
:100DD00084F82C30236C1BB104F130012046984775
:100DE0000023236410BD10BD90F82C3010B5032BE8
:100DF000044607D0042B0ED0022B23D1BDE81040AF
:100E0000FFF7D5BE0723BDE81040002280F82C3044
:100E10001146FFF7A0BE036C13B100F130019847F3
:100E200094F8303053B994F83130052B06D1618EE7
:100E3000D4F8DC30C9B25B6820469847002384F8B8
:100E40002C3010BDBDE81040FFF789BEF8B50D4647
:100E50004988044679B103680D26587C00238342F3
:100E600001D30020F8BD626806FB032252798A4252
:100E700003D00133F3E74FF0FF330133DBB2E37507
:100E80004BB9D4F8DC302046DB689847D4F8C8303A
:100E90009BB90120F8BD0D22534362680D3B1344FA
:100EA0000022104619798A42EBD2D3F809101601B4
:100EB000715801B108700132F4E7002304F1C8064B
:100EC000A3642365A365236604F1D80756F8043BA1
:100ED00013B1698820469847BE42F7D1D9E71988EF
:100EE0001268012984BF01211980C37D2BB141689B
:100EF0000D2000FB031313F8083C1370012070470A
:100F000030B50D24C57D40686C430D3C04448D888C
:100F1000207985420CD2012018808B88D4F80900F2
:100F20001B011B58126803B11B781370012030BDE0
:100F3000002030BD19880120022984BF02211980B8
:100F4000002311680B7012685370704738B514464F
:100F50001A882568022A84BF02221A808988C9B2A9
:100F6000FFF7F5FD003018BF01200022287023682C
:100F700001205A7038BD08B589880122C9B2FFF72F
:100F8000E2FD012008BD08B589880022C9B2FFF73B
:100F9000DAFD012008BD10B50B7873B94C887F2CA1
:100FA0000BD8D0F8DC30847593F830201AB149881A
:100FB0005B68C9B29847012010BD002010BD0D220A
:100FC00070B51C46C37D5A4343680D3A13441D79DE
:100FD0008A88954216D9D3F809501201AE184B8869
:100FE00036799E420ED9AA5852B11370D0F8D83033
:100FF00013B14A888988984700230120238070BD57
:10100000002BF3D0002070BD2DE9F04F4D881F4616
:101010002B0A022B89B0164611D0032B00F0E68074
:10102000012B40F01B8102683988326012788A42B5
:1010300028BF0A463A80012009B0BDE8F08F0D268E
:10104000EDB26E430369D0F80480136018F80650BF
:101050003C880193A54228BF254608EB06032A4693
:1010600019460198029300F097FC0022019B641B33
:1010700018F806602B44A4B20392029A1179BDF8C5
:101080000C20914203D8019B5E803D80D3E7BDF8E0
:101090000C2012010792029A0799D2F809200A44FB
:1010A000D2F80890B9F1000F14D099F800801846D2
:1010B000A04528BFA0464946424600F06DFC0346C5
:1010C00099F80020A4EB0804454416444344A4B214
:1010D000ADB2B6B200220492029A0799D2F8092062
:1010E0000A441079BDF81010884202D8039A0132E0
:1010F000C2E71521BDF81090D2F80CA001FB09F948
:101100001AF809800AEB090BA04528BFA0465946EA
:101110004246184600F040FC03461AF80920DBF866
:101120000D10A4EB0804454416444344A4B2ADB2E8
:10113000B6B2A9B1DBF811801846A045A8BFA046F9
:101140001FFA88F94A4600F027FC0346DBF8112015
:10115000A4EB09044D4416444B44A4B2ADB2B6B25C
:10116000002205929BF80410BDF81420914202D889
:10117000049A0132AFE7BDF81490DBF80920C9EBFF
:10118000091912F8098002EB090AA04528BFA046F8
:10119000069251464246184600F0FEFB0346069A68
:1011A000DAF8071012F80920A4EB080445441644A5
:1011B0004344A4B2ADB2B6B2A9B1DAF80B80184676
:1011C000A045A8BFA0461FFA88F94A4600F0E4FBF4
:1011D0000346DAF80B20A4EB09044D4416444B44B3
:1011E000A4B2ADB2B6B2059A0132BAE715F0FF0566
:1011F00004690DD10923A3700423E37023703B8895
:10120000042B28BF04233B8003236370346012E760
:101210008368013D13B3C26895421FDA40F2094268
:10122000898891421AD153F82550284600F02AFCAB
:1012300001304000C0B220703B882946984228BF48
:10124000184638803B884A1B5B08013B9342DBDD34
:1012500011F8013B04EB42025380F3E70020EBE678
:1012600019880120022984BF0221198000231168F6
:101270000B7012685370704730B44C78092C06D844
:10128000044D55F8244014B1A44630BC60470020FA
:1012900030BC7047901B000830B44C780B2C06D83B
:1012A000044D55F8244014B1A44630BC60470020DA
:1012B00030BC7047B81B000810B44C78012C05D026
:1012C0000ED3032C07D0002010BC70474C88002C94
:1012D000F9D1054C05E04C88002CF4D1034C00E01A
:1012E000034CA44610BC6047870F0008770F000826
:1012F0004D0F000810B40C7814F0600F06D104F004
:101300001F04012C08D004D3022C08D0002010BCEC
:10131000704710BCFFF7B0BF10BCFFF7BDBF10BCDB
:10132000FFF7CABF08B540F29730FFF776FB0023FE
:10133000054A064913600B6041F80C3C4FF41C430E
:101340000348136008BD00BF405C0040505C004093
:10135000BC040020013222F001020A44914200D173
:10136000704731F8023B043040F8043CF6E7F0B532
:1013700002F0010652080D46044613462BB91EB171
:1013800011F8223000F81230F0BD35F8047B013B33
:1013900024F8027B9BB2F1E7FEE770470022184C6D
:1013A000184919485318834216D30021174A93420B
:1013B00016D3174A174C1368174D43F40073136084
:1013C000AC4210D3154C164DAC4210D3FEF70EFFB5
:1013D000144C154DAC420ED3135953500432E1E76F
:1013E00019600433E3E754F8043B9847E8E754F8FE
:1013F000043B9847E8E754F8043B9847EAE700BF06
:101400001C1C00080000002094000020C4090020DB
:1014100014ED00E01C1C00081C1C00081C1C00082B
:101420001C1C00081C1C00081C1C0008024B20F09F
:101430007F401860704700BF14E000E0044A00F0ED
:101440000400136823F0040303431360704700BFD4
:1014500010E000E0024A136843F002031360704793
:1014600010E000E0024A136843F001031360704784
:1014700010E000E0014A024B1A60FEE70400FA05A2
:101480000CED00E0024B41F080011960704700BF95
:101490004C5C00403E2A0F4B4FEAC1010DD91B683E
:1014A000D0069BB219440C4B18BF203A0B4843EAB4
:1014B0004212490092B2425070471B68D0079BB25B
:1014C00048BF013219449202044B490092B25A506B
:1014D000704700BF505C00400080FFFF0C60004080
:1014E0002DE9F3411E464FF40073ADF800304FF480
:1014F0008063ADF802300023ADF804304FF4C063D0
:1015000001F07F07BC0004F1804404F5B844ADF855
:1015100006302368054623F4E04323F07F033B4372
:101520009BB22360236802A800EB420223F4EC4341
:1015300032F8082C23F07003134349B29BB2002900
:10154000DDF82080236031484FEAC70E2ADB4FB315
:1015500003682A8B9BB29E442D4B4FEA4E0E43F8F4
:101560000E20394632462846FFF794FFB8F1000FA7
:1015700046D1236823F4415323F030031B041B0C92
:10158000236022682B8B22F4804222F0700292B2F8
:1015900082F4405242F4004242F080021E44226033
:1015A0002E832AE002682B8B92B27244520002F121
:1015B000804202F5C0421360B8F1000F04D00C2243
:1015C00002FB0752C2F868802268334422F4E042EA
:1015D00022F030021204120C22602268002922F448
:1015E000E04222F0400292B282F0200242F4004235
:1015F00042F0800222602B83AADA02B0BDE8F081BB
:101600000C2303FB0757C7F86C80B2E7505C00401F
:101610000860004048F2800170B50B4A0B4E0C4D3B
:101620000C4C136833400B439BB2136013682B4080
:101630000B439BB242F8043BA242F2D10368DB7930
:1016400020335B00038370BD045C0040BF8FFFFF4D
:101650008FBFFFFF205C004010B589B9002A14BF7E
:10166000102420242C48036823F4E04323F0400393
:1016700063401BB243F4004343F080039BB203601A
:101680000B0623D5002A14BF1022202201F07F016F
:101690004FEA810101F1804101F5B8410B6823F463
:1016A000E04323F0400383EA02031BB243F4004308
:1016B00043F080039BB20B6007D10B6823F4E04337
:1016C00023F030031B041B0C0B6010BD89005AB9BA
:1016D00001F1804303F5B843186820F4415020F02D
:1016E00030000004000C1860002A14BF4FF4805230
:1016F0004FF4405201F1804101F5B8410B6823F4E9
:10170000804323F0700353401BB243F4004343F083
:1017100080039BB2D8E700BF005C00400B060ED5EB
:1017200001F07F01890001F1804101F5B8410868AD
:1017300000F03000102814BF0020012070478900FD
:1017400001F1804101F5B841086800F44050B0F55E
:10175000805FF0E70B0612D40B4B0C485A548900FB
:1017600001F1804101F5B8410B6803409BB23AB1E9
:1017700083F4005343F4004343F080030B6070474D
:1017800083F44053F6E700BFB80500208FBFFFFF8A
:1017900001F07F01F8B58C0004F1804404F5B844F1
:1017A0001D462368964603F03003302B28D0154F92
:1017B000CE003A68714692B23244520002F1804241
:1017C00002F5C04210882A46400000F1804000F532
:1017D000C040FFF7BFFD39680B4B89B20E4476005D
:1017E0009D51226822F4E04222F0400292B282F03F
:1017F000300242F4004242F0800222602846F8BDE6
:101800000025FBE7505C004004600040F8B58C0008
:1018100004F1804404F5B8441D4623680E4603F4E1
:101820004053B3F5405F10463AD01E49F2000B68B2
:101830001D4F9BB213445B00FB58C3F30903AB423B
:1018400006DA0B689BB213445B00FD58C5F309052B
:101850000B689BB21A44154B5200995A2A4649000C
:1018600001F1804101F5C041FFF781FD236823F0BC
:10187000F0031B051B0D43F0800323600C4B9B5DA5
:1018800063B9226822F4804222F0700292B282F49C
:10189000405242F4004242F0800222602846F8BDE5
:1018A0000025FBE7505C00400C60004008600040F1
:1018B000B8050020364AF8B51368044613F4806F63
:1018C0009EB2154608D04FF6FF33136040230383C2
:1018D000BDE8F840FFF70FB919041AD503F00F015E
:1018E00013F010034FEA810234D002F1804303F574
:1018F000B8431B6813F4006F14BF0223012301EBEC
:10190000410003441A3354F82330002B2FD02046D3
:101910009847320505D54FF2FF732B60236A03B158
:101920009847F30405D54EF6FF732B60636A03B145
:10193000984716F4007F174E05D04FF6FF532B60E3
:10194000A36A0BB39847A36AF3B1336843F40073F7
:101950003360F8BD02F1804707F5B847386820F0DA
:10196000F0000005000D40F400403860C7E702F1C8
:10197000804303F5B8431A6822F0F0021205120DF5
:1019800042F080021A60C4E7336823F40073DFE793
:10199000445C0040405C0040844641EA000313F090
:1019A000030349D1403A23D30B6803604B6843607B
:1019B0008B688360CB68C3600B6903614B694361CB
:1019C0008B698361CB69C3610B6A03624B6A4362B3
:1019D0008B6A8362CB6AC3620B6B03634B6B43639B
:1019E0008B6B8363CB6BC36340304031403ADBD2B7
:1019F00030320BD30B6803604B6843608B688360A5
:101A0000CB68C36010301031103AF3D20C3205D3DA
:101A100051F8043B40F8043B043AF9D2043208D0B0
:101A2000D2071CBF11F8013B00F8013B01D30B8822
:101A300003806046704700BF082A13D38B07B1D0DC
:101A400010F00303AED0C3F10403D21ADB071CBFAE
:101A500011F8013B00F8013BA4D331F8023B20F818
:101A6000023B9FE7043AD9D3013A11F8013B00F851
:101A7000013BF9D20B7803704B7843708B788370FD
:101A80006046704720F0030110F00300C0F1000031
:101A900051F8043B00F1040C4FEACC0C6FF000024B
:101AA0001CBF22FA0CF213434FF0010C4CEA0C2C31
:101AB0004CEA0C4CA3EB0C0222EA030212EACC1211
:101AC00004BF51F8043B0430F4D0C2F1000102EA33
:101AD0000102B2FA82F2C2F11F0200EBD20070479B
:101AE00009020000010100C032041B0008000000D0
:101AF0001201000200000040501D176000010102A9
:101B000003010000000000000100000000000000D0
:101B1000141B00080904000000FE0102040000007C
:101B2000002C1B00080900000000000009210BFF29
:101B30000000041A01000000426C61636B205370C6
:101B40006865726520546563686E6F6C6F67696560
:101B500073000000426C61636B204D616769632014
:101B600050726F6265202844465520557067726137
:101B700064652900426C61636B204D616769632075
:101B800050726F6265202855706772616465290024
:101B900061120008000000000000000000000000CA
:101BA00000000000970F0008091000080000000066
:101BB000DF0E00084D0E0008350F00080000000081
:101BC0000000000000000000000000000000000015
:101BD0000000000000000000000000000000000005
:101BE000010F0008BF0F0008251300088514000826
:101BF000E1140008151600085916000855170008CA
:101C00001D170008911700080D180008B5180008E6
:0C1C1000000000000000000000000000C8
:101C1C00010000000020000802000000381B000832
:101C2C00741B0008B00400202C000020381B000896
:101C3C00541B0008B00400205C00002040496E7466
:101C4C0065726E616C20466C6173682020202F30A9
:101C5C007830383030303030302F382A3030314B0B
:101C6C00612C3030302A3030314B670040496E7473
:101C7C0065726E616C20466C6173682020202F3079
:101C8C007830383030303030302F382A3030314BDB
:101C9C0067000000FFFFFFFF00127A0000127A00BD
:041CAC0000127A00A8
:040000050800139D3F
:00000001FF
